:100CE900496E76616C6964206F7065726174696FB1
:020CF9006E008B
:100CD000011E00011F00012300012000022100006D
:080CE0000224000002260000BE
:080CB000C291D2927F0A7E007E
:100CB800E4FDFCC3ED9FEE6480F8EC648098500777
:070CC8000DBD00010C80ECE2
:010CCF002202
:0A0D06008FA0C290120CB0C292221E
:030CFB00850AA0C7
:080CFE00D290120CB0C2922248
:0D0A9E007C007D0A120908EF2430F51EFFD0
:100AAB008F0AE52245217023850A1E851EA0AF1EE5
:100ABB00EF3395E0FEEF24D0F525EE34FFF524124D
:100ACB000CFE0522E5227044052122E52264014536
:030ADB002170592E
:100ADE00780C7C00FD7BFF7A0C79E9FE7F12120800
:100AEE00D0E523642F6011E523642A600BE52364AF
:100AFE002D6005E523B42B12850A238523A0120C45
:100B0E00FE0522E52270020521227FC0120D06E4A9
:100B1E00F50B740C250BF8E6FFFD3395E04D605692
:090B2E008F0A120CFB050B80E993
:100B3700E522640245217023850A1F851FA0AF1F88
:100B4700EF3395E0FEEF24D0F527EE34FFF52612BC
:100B57000CFE0522E5227025052122E522640345C6
:100B670021700C120CFB0522E5227011052122E5EC
:0E0B770022640445217006850AA0120CFE229D
:100B8500E523B42F13AC26AD27AE24AF25120908F3
:100B95008E088F09EF020C20E523642B7032E525C2
:100BA5002527F509E5243526F508D3E5099409E552
:100BB50008648094804015AE08AF09120A9EAE08FD
:100BC500AF097C007D0A120908ED8002E509804B1A
:100BD500E523B42D11C3E5259527F509E5249526CB
:100BE500F508E5098035E523642A7032AC26AD2782
:100BF500AE24AF251208F68E088F09D3E5099409AE
:100C0500E508648094804011120A9EAE08AF097C05
:0E0C1500007D0A120908ED8002E509120AA608
:010C230022AE
:100993007F38120D067F0E120D067F01120D067FA2
:1009A30080120D06C2B0D2B1D2B2D2B320B4083095
:1009B300B4FD7F37120AAB20B50830B5FD7F38127E
:1009C3000AAB20B60830B6FD7F39120AAB20B70B4D
:1009D30030B7FD75232F7F2F120AABD2B0C2B1D22D
:1009E300B2D2B320B40830B4FD7F34120AAB20B5C1
:1009F3000830B5FD7F35120AAB20B60830B6FD7F4F
:100A030036120AAB20B70B30B7FD75232A7F2A12A3
:100A13000AABD2B0D2B1C2B2D2B320B40830B4FD63
:100A23007F31120AAB20B50830B5FD7F32120AAB15
:100A330020B60830B6FD7F33120AAB20B70B30B7B0
:100A4300FD75232D7F2D120AABD2B0D2B1D2B2C223
:100A5300B320B41530B4FD7F01120D06E4F51EF585
:100A63001FF523F521F522F52020B50830B5FD7FCC
:100A730030120AAB20B61030B6FD7F3D120AAB7FB1
:100A8300C0120D06120B8530B7030209A730B7FD5C
:0B0A930075232B7F2B120AAB0209A772
:03000000020C24CB
:0C0C2400787FE4F6D8FD758127020C6B88
:10080000E709F608DFFA8046E709F208DFFA803EDA
:1008100088828C83E709F0A3DFFA8032E309F608C7
:10082000DFFA8078E309F208DFFA807088828C832F
:10083000E309F0A3DFFA806489828A83E0A3F608E3
:10084000DFFA805889828A83E0A3F208DFFA804CBD
:1008500080D280FA80C680D4806980F28033801094
:1008600080A680EA809A80A880DA80E280CA8033FD
:1008700089828A83ECFAE493A3C8C582C8CCC58375
:10088000CCF0A3C8C582C8CCC583CCDFE9DEE78045
:100890000D89828A83E493A3F608DFF9ECFAA9F0C4
:1008A000EDFB2289828A83ECFAE0A3C8C582C8CC1A
:1008B000C583CCF0A3C8C582C8CCC583CCDFEADE33
:1008C000E880DB89828A83E493A3F208DFF980CC95
:1008D00088F0EF60010E4E60C388F0ED2402B4048E
:1008E0000050B9F582EB2402B4040050AF23234535
:0608F00082239008507302
:1008F600EF8DF0A4A8F0CF8CF0A428CE8DF0A42E16
:02090600FE22CF
:10090800C2D5EC30E709B2D5E4C39DFDE49CFCEE0A
:1009180030E715B2D5E4C39FFFE49EFE12093EC33B
:10092800E49DFDE49CFC800312093E30D507C3E436
:060938009FFFE49EFE2279
:100C3000020993E493A3F8E493A34003F68001F23E
:100C400008DFF48029E493A3F85407240CC8C333C5
:100C5000C4540F4420C8834004F456800146F6DF94
:100C6000E4800B0102040810204080900CD0E47E48
:100C7000019360BCA3FF543F30E509541FFEE49389
:100C8000A360010ECF54C025E060A840B8E493A350
:100C9000FAE493A3F8E493A3C8C582C8CAC583CA7B
:100CA000F0A3C8C582C8CAC583CADFE9DEE780BE33
:010CE800000B
:10093E00BC000BBE0029EF8DF084FFADF022E4CC9D
:10094E00F875F008EF2FFFEE33FEEC33FCEE9DEC66
:10095E00984005FCEE9DFE0FD5F0E9E4CEFD22EDAC
:10096E00F8F5F0EE8420D21CFEADF075F008EF2FF6
:10097E00FFED33FD4007985006D5F0F222C398FDE7
:05098E000FD5F0EA2284
:00000001FF
