:10081F00E4FFFEE4FDFC0DBD00010CBC03F8BDE8D8
:0C082F00F50FBF00010EBE01EABF2CE770
:01083B00229A
:10083C00C290C293C296C2A1C291C294C297C2A2E4
:09084C00C292C295C2A0C2A3220F
:10085500D296D293D292D2A112081FD29402081F27
:10086500D295D290D296D2A112081FD29702081F14
:10087500D290D2A0D293D2A112081FD2A202081FF1
:10088500D290D2A3D296D29312081FD29102081FFA
:10080000E4F590F5A012085512083C12086512088C
:0F0810003C12087512083C12088512083C80E65D
:030000000208955E
:0C089500787FE4F6D8FD758107020800AA
:00000001FF
