:0C0B5F0002080000020A0000020C000066
:100B4200E4FFFEE4FDFC0DBD00010CED64644C709D
:0C0B5200F50FBF00010EEF64644E70E769
:010B5E002274
:1009C900AB07AA06E50D450C70108A088B09850945
:1009D90090050DE50D7002050C22E50D6401450C2D
:1009E90070108A0A8B0B850B90050DE50D700205B9
:0A09F9000C22E50D6402450C705459
:100A0300F510F511C3EA64809480500F7CFF7DFFDD
:100A1300AF03AE0212092CAA06AB077C007D0AAF16
:100A230003AE0212093E8E108F11E511C4F8540F64
:100A3300C868F511E510C454F048F5107C007D0A30
:100A4300AF03AE0212093EAB05E5112BFB8B90E41D
:040A5300F50CF50D9C
:010A5700227C
:100AE400E50F6401450E700DAC0AAD0BAE08AF09FD
:100AF40012093E8041E50F6404450E700CE509259A
:100B04000BF582E508350A8013E50F6403450E7082
:100B140012C3E509950BF582E508950AF583AF82C2
:100B2400FE8017E50F6402450E7012AC0AAD0BAEE1
:0D0B340008AF0912092C8E838F821209C9A7
:010B41002291
:10080000E4F590C2A0D2A1D2A2D2A320A40D120BD3
:100810004230A4FD7F077E001209C920A50D120BEE
:100820004230A5FD7F087E001209C920A60D120BDB
:100830004230A6FD7F097E001209C920A70C120BC9
:100840004230A7FD750E00750F01D2A0C2A1D2A241
:10085000D2A320A40D120B4230A4FD7F047E00120F
:1008600009C920A50D120B4230A5FD7F057E00129F
:1008700009C920A60D120B4230A6FD7F067E00128C
:1008800009C920A70C120B4230A7FD750E00750F89
:1008900002D2A0D2A1C2A2D2A320A40D120B423038
:1008A000A4FD7F017E001209C920A50D120B423064
:1008B000A5FD7F027E001209C920A60D120B423051
:1008C000A6FD7F037E001209C920A70C120B42303F
:1008D000A7FD750E00750F03D2A0D2A1D2A2C2A3AC
:1008E00020A419120B4230A4FDE4FFFE1209C9E452
:1008F000F508F509F50AF50BF50CF50D20A50C1218
:100900000B4230A5FDE4FFFE1209C920A609120B17
:100910004230A6FD120AE430A703020803120B427C
:0C09200030A7FD750E00750F04020803DF
:03000000020A5899
:0C0A5800787FE4F6D8FD758111020A9F3A
:10092C00EF8DF0A4A8F0CF8CF0A428CE8DF0A42EDF
:02093C00FE2299
:10093E00C2D5EC30E709B2D5E4C39DFDE49CFCEED4
:10094E0030E715B2D5E4C39FFFE49EFE120974C3CF
:10095E00E49DFDE49CFC800312097430D507C3E4CA
:06096E009FFFE49EFE2243
:100A6400020800E493A3F8E493A34003F68001F2A0
:100A740008DFF48029E493A3F85407240CC8C33393
:100A8400C4540F4420C8834004F456800146F6DF62
:100A9400E4800B0102040810204080900B5FE47E88
:100AA400019360BCA3FF543F30E509541FFEE49357
:100AB400A360010ECF54C025E060A840B8E493A31E
:100AC400FAE493A3F8E493A3C8C582C8CAC583CA49
:100AD400F0A3C8C582C8CAC583CADFE9DEE780BE01
:010B6B000089
:10097400BC000BBE0029EF8DF084FFADF022E4CC67
:10098400F875F008EF2FFFEE33FEEC33FCEE9DEC30
:10099400984005FCEE9DFE0FD5F0E9E4CEFD22ED76
:1009A400F8F5F0EE8420D21CFEADF075F008EF2FC0
:1009B400FFED33FD4007985006D5F0F222C398FDB1
:0509C4000FD5F0EA224E
:00000001FF
